{
  "_format": "hh-sol-artifact-1",
  "contractName": "Immutable",
  "sourceName": "contracts/Immutable.sol",
  "abi": [
    {
      "inputs": [
        {
          "internalType": "uint256",
          "name": "",
          "type": "uint256"
        }
      ],
      "name": "Reports",
      "outputs": [
        {
          "internalType": "address",
          "name": "sender",
          "type": "address"
        },
        {
          "internalType": "uint256",
          "name": "aadhar",
          "type": "uint256"
        },
        {
          "internalType": "string",
          "name": "fullname",
          "type": "string"
        },
        {
          "internalType": "uint256",
          "name": "contact",
          "type": "uint256"
        },
        {
          "internalType": "string",
          "name": "place",
          "type": "string"
        },
        {
          "internalType": "uint256",
          "name": "date",
          "type": "uint256"
        },
        {
          "internalType": "uint256",
          "name": "time",
          "type": "uint256"
        },
        {
          "internalType": "string",
          "name": "offence",
          "type": "string"
        },
        {
          "internalType": "string",
          "name": "witness",
          "type": "string"
        },
        {
          "internalType": "string",
          "name": "complaint",
          "type": "string"
        }
      ],
      "stateMutability": "view",
      "type": "function"
    },
    {
      "inputs": [],
      "name": "count",
      "outputs": [
        {
          "internalType": "uint256",
          "name": "",
          "type": "uint256"
        }
      ],
      "stateMutability": "view",
      "type": "function"
    },
    {
      "inputs": [
        {
          "internalType": "uint256",
          "name": "Id",
          "type": "uint256"
        }
      ],
      "name": "fetchFIR",
      "outputs": [
        {
          "internalType": "address",
          "name": "",
          "type": "address"
        },
        {
          "internalType": "uint256",
          "name": "",
          "type": "uint256"
        },
        {
          "internalType": "string",
          "name": "",
          "type": "string"
        },
        {
          "internalType": "uint256",
          "name": "",
          "type": "uint256"
        },
        {
          "internalType": "string",
          "name": "",
          "type": "string"
        },
        {
          "internalType": "uint256",
          "name": "",
          "type": "uint256"
        },
        {
          "internalType": "uint256",
          "name": "",
          "type": "uint256"
        },
        {
          "internalType": "string",
          "name": "",
          "type": "string"
        },
        {
          "internalType": "string",
          "name": "",
          "type": "string"
        },
        {
          "internalType": "string",
          "name": "",
          "type": "string"
        }
      ],
      "stateMutability": "view",
      "type": "function"
    },
    {
      "inputs": [
        {
          "internalType": "address",
          "name": "_sender",
          "type": "address"
        },
        {
          "internalType": "uint256",
          "name": "_aadhar",
          "type": "uint256"
        },
        {
          "internalType": "string",
          "name": "_fullname",
          "type": "string"
        },
        {
          "internalType": "uint256",
          "name": "_contact",
          "type": "uint256"
        },
        {
          "internalType": "string",
          "name": "_place",
          "type": "string"
        },
        {
          "internalType": "uint256",
          "name": "_date",
          "type": "uint256"
        },
        {
          "internalType": "uint256",
          "name": "_time",
          "type": "uint256"
        },
        {
          "internalType": "string",
          "name": "_offence",
          "type": "string"
        },
        {
          "internalType": "string",
          "name": "_witness",
          "type": "string"
        },
        {
          "internalType": "string",
          "name": "_complaint",
          "type": "string"
        }
      ],
      "name": "saveFIR",
      "outputs": [],
      "stateMutability": "nonpayable",
      "type": "function"
    }
  ],
  "bytecode": "0x6080604052600060015534801561001557600080fd5b50611204806100256000396000f3fe608060405234801561001057600080fd5b506004361061004c5760003560e01c806306661abd14610051578063171b4e1e1461006f578063467f2cd81461008b5780639def2ad1146100c4575b600080fd5b6100596100fd565b6040516100669190610995565b60405180910390f35b61008960048036038101906100849190610b94565b610103565b005b6100a560048036038101906100a09190610cff565b61027f565b6040516100bb9a99989796959493929190610dba565b60405180910390f35b6100de60048036038101906100d99190610cff565b61059b565b6040516100f49a99989796959493929190610dba565b60405180910390f35b60015481565b6001600081548092919061011690610ea8565b9190505550600060015490506040518061014001604052808c73ffffffffffffffffffffffffffffffffffffffff1681526020018b81526020018a81526020018981526020018881526020018781526020018681526020018581526020018481526020018381525060008083815260200190815260200160002060008201518160000160006101000a81548173ffffffffffffffffffffffffffffffffffffffff021916908373ffffffffffffffffffffffffffffffffffffffff1602179055506020820151816001015560408201518160020190816101f691906110fc565b5060608201518160030155608082015181600401908161021691906110fc565b5060a0820151816005015560c0820151816006015560e082015181600701908161024091906110fc565b5061010082015181600801908161025791906110fc565b5061012082015181600901908161026e91906110fc565b509050505050505050505050505050565b60006020528060005260406000206000915090508060000160009054906101000a900473ffffffffffffffffffffffffffffffffffffffff16908060010154908060020180546102ce90610f1f565b80601f01602080910402602001604051908101604052809291908181526020018280546102fa90610f1f565b80156103475780601f1061031c57610100808354040283529160200191610347565b820191906000526020600020905b81548152906001019060200180831161032a57829003601f168201915b50505050509080600301549080600401805461036290610f1f565b80601f016020809104026020016040519081016040528092919081815260200182805461038e90610f1f565b80156103db5780601f106103b0576101008083540402835291602001916103db565b820191906000526020600020905b8154815290600101906020018083116103be57829003601f168201915b5050505050908060050154908060060154908060070180546103fc90610f1f565b80601f016020809104026020016040519081016040528092919081815260200182805461042890610f1f565b80156104755780601f1061044a57610100808354040283529160200191610475565b820191906000526020600020905b81548152906001019060200180831161045857829003601f168201915b50505050509080600801805461048a90610f1f565b80601f01602080910402602001604051908101604052809291908181526020018280546104b690610f1f565b80156105035780601f106104d857610100808354040283529160200191610503565b820191906000526020600020905b8154815290600101906020018083116104e657829003601f168201915b50505050509080600901805461051890610f1f565b80601f016020809104026020016040519081016040528092919081815260200182805461054490610f1f565b80156105915780601f1061056657610100808354040283529160200191610591565b820191906000526020600020905b81548152906001019060200180831161057457829003601f168201915b505050505090508a565b600080606060006060600080606080606060008060008d8152602001908152602001600020604051806101400160405290816000820160009054906101000a900473ffffffffffffffffffffffffffffffffffffffff1673ffffffffffffffffffffffffffffffffffffffff1673ffffffffffffffffffffffffffffffffffffffff1681526020016001820154815260200160028201805461063c90610f1f565b80601f016020809104026020016040519081016040528092919081815260200182805461066890610f1f565b80156106b55780601f1061068a576101008083540402835291602001916106b5565b820191906000526020600020905b81548152906001019060200180831161069857829003601f168201915b50505050508152602001600382015481526020016004820180546106d890610f1f565b80601f016020809104026020016040519081016040528092919081815260200182805461070490610f1f565b80156107515780601f1061072657610100808354040283529160200191610751565b820191906000526020600020905b81548152906001019060200180831161073457829003601f168201915b50505050508152602001600582015481526020016006820154815260200160078201805461077e90610f1f565b80601f01602080910402602001604051908101604052809291908181526020018280546107aa90610f1f565b80156107f75780601f106107cc576101008083540402835291602001916107f7565b820191906000526020600020905b8154815290600101906020018083116107da57829003601f168201915b5050505050815260200160088201805461081090610f1f565b80601f016020809104026020016040519081016040528092919081815260200182805461083c90610f1f565b80156108895780601f1061085e57610100808354040283529160200191610889565b820191906000526020600020905b81548152906001019060200180831161086c57829003601f168201915b505050505081526020016009820180546108a290610f1f565b80601f01602080910402602001604051908101604052809291908181526020018280546108ce90610f1f565b801561091b5780601f106108f05761010080835404028352916020019161091b565b820191906000526020600020905b8154815290600101906020018083116108fe57829003601f168201915b5050505050815250509050806000015181602001518260400151836060015184608001518560a001518660c001518760e001518861010001518961012001519a509a509a509a509a509a509a509a509a509a50509193959799509193959799565b6000819050919050565b61098f8161097c565b82525050565b60006020820190506109aa6000830184610986565b92915050565b6000604051905090565b600080fd5b600080fd5b600073ffffffffffffffffffffffffffffffffffffffff82169050919050565b60006109ef826109c4565b9050919050565b6109ff816109e4565b8114610a0a57600080fd5b50565b600081359050610a1c816109f6565b92915050565b610a2b8161097c565b8114610a3657600080fd5b50565b600081359050610a4881610a22565b92915050565b600080fd5b600080fd5b6000601f19601f8301169050919050565b7f4e487b7100000000000000000000000000000000000000000000000000000000600052604160045260246000fd5b610aa182610a58565b810181811067ffffffffffffffff82111715610ac057610abf610a69565b5b80604052505050565b6000610ad36109b0565b9050610adf8282610a98565b919050565b600067ffffffffffffffff821115610aff57610afe610a69565b5b610b0882610a58565b9050602081019050919050565b82818337600083830152505050565b6000610b37610b3284610ae4565b610ac9565b905082815260208101848484011115610b5357610b52610a53565b5b610b5e848285610b15565b509392505050565b600082601f830112610b7b57610b7a610a4e565b5b8135610b8b848260208601610b24565b91505092915050565b6000806000806000806000806000806101408b8d031215610bb857610bb76109ba565b5b6000610bc68d828e01610a0d565b9a50506020610bd78d828e01610a39565b99505060408b013567ffffffffffffffff811115610bf857610bf76109bf565b5b610c048d828e01610b66565b9850506060610c158d828e01610a39565b97505060808b013567ffffffffffffffff811115610c3657610c356109bf565b5b610c428d828e01610b66565b96505060a0610c538d828e01610a39565b95505060c0610c648d828e01610a39565b94505060e08b013567ffffffffffffffff811115610c8557610c846109bf565b5b610c918d828e01610b66565b9350506101008b013567ffffffffffffffff811115610cb357610cb26109bf565b5b610cbf8d828e01610b66565b9250506101208b013567ffffffffffffffff811115610ce157610ce06109bf565b5b610ced8d828e01610b66565b9150509295989b9194979a5092959850565b600060208284031215610d1557610d146109ba565b5b6000610d2384828501610a39565b91505092915050565b610d35816109e4565b82525050565b600081519050919050565b600082825260208201905092915050565b60005b83811015610d75578082015181840152602081019050610d5a565b60008484015250505050565b6000610d8c82610d3b565b610d968185610d46565b9350610da6818560208601610d57565b610daf81610a58565b840191505092915050565b600061014082019050610dd0600083018d610d2c565b610ddd602083018c610986565b8181036040830152610def818b610d81565b9050610dfe606083018a610986565b8181036080830152610e108189610d81565b9050610e1f60a0830188610986565b610e2c60c0830187610986565b81810360e0830152610e3e8186610d81565b9050818103610100830152610e538185610d81565b9050818103610120830152610e688184610d81565b90509b9a5050505050505050505050565b7f4e487b7100000000000000000000000000000000000000000000000000000000600052601160045260246000fd5b6000610eb38261097c565b91507fffffffffffffffffffffffffffffffffffffffffffffffffffffffffffffffff8203610ee557610ee4610e79565b5b600182019050919050565b7f4e487b7100000000000000000000000000000000000000000000000000000000600052602260045260246000fd5b60006002820490506001821680610f3757607f821691505b602082108103610f4a57610f49610ef0565b5b50919050565b60008190508160005260206000209050919050565b60006020601f8301049050919050565b600082821b905092915050565b600060088302610fb27fffffffffffffffffffffffffffffffffffffffffffffffffffffffffffffffff82610f75565b610fbc8683610f75565b95508019841693508086168417925050509392505050565b6000819050919050565b6000610ff9610ff4610fef8461097c565b610fd4565b61097c565b9050919050565b6000819050919050565b61101383610fde565b61102761101f82611000565b848454610f82565b825550505050565b600090565b61103c61102f565b61104781848461100a565b505050565b5b8181101561106b57611060600082611034565b60018101905061104d565b5050565b601f8211156110b05761108181610f50565b61108a84610f65565b81016020851015611099578190505b6110ad6110a585610f65565b83018261104c565b50505b505050565b600082821c905092915050565b60006110d3600019846008026110b5565b1980831691505092915050565b60006110ec83836110c2565b9150826002028217905092915050565b61110582610d3b565b67ffffffffffffffff81111561111e5761111d610a69565b5b6111288254610f1f565b61113382828561106f565b600060209050601f8311600181146111665760008415611154578287015190505b61115e85826110e0565b8655506111c6565b601f19841661117486610f50565b60005b8281101561119c57848901518255600182019150602085019450602081019050611177565b868310156111b957848901516111b5601f8916826110c2565b8355505b6001600288020188555050505b50505050505056fea26469706673582212207bfcfad5c520e1e6ad8039512b18e809b81e5d1a843950bbdaf332add06eb62e64736f6c63430008110033",
  "linkReferences": {},
  "deployedLinkReferences": {}
}