{
  "_format": "hh-sol-artifact-1",
  "contractName": "Immutable",
  "sourceName": "contracts/Immutable.sol",
  "abi": [
    {
      "anonymous": false,
      "inputs": [
        {
          "indexed": false,
          "internalType": "uint256",
          "name": "Id",
          "type": "uint256"
        },
        {
          "indexed": false,
          "internalType": "address",
          "name": "sender",
          "type": "address"
        }
      ],
      "name": "NewFIR",
      "type": "event"
    },
    {
      "inputs": [
        {
          "internalType": "address",
          "name": "_sender",
          "type": "address"
        },
        {
          "internalType": "uint256",
          "name": "_aadhar",
          "type": "uint256"
        },
        {
          "internalType": "string",
          "name": "_fullname",
          "type": "string"
        },
        {
          "internalType": "uint256",
          "name": "_contact",
          "type": "uint256"
        },
        {
          "internalType": "string",
          "name": "_place",
          "type": "string"
        },
        {
          "internalType": "uint256",
          "name": "_date",
          "type": "uint256"
        },
        {
          "internalType": "uint256",
          "name": "_time",
          "type": "uint256"
        },
        {
          "internalType": "string",
          "name": "_offence",
          "type": "string"
        },
        {
          "internalType": "string",
          "name": "_witness",
          "type": "string"
        },
        {
          "internalType": "string",
          "name": "_complaint",
          "type": "string"
        }
      ],
      "name": "FileFIR",
      "outputs": [],
      "stateMutability": "nonpayable",
      "type": "function"
    },
    {
      "inputs": [
        {
          "internalType": "uint256",
          "name": "",
          "type": "uint256"
        }
      ],
      "name": "Reports",
      "outputs": [
        {
          "internalType": "address",
          "name": "sender",
          "type": "address"
        },
        {
          "internalType": "uint256",
          "name": "aadhar",
          "type": "uint256"
        },
        {
          "internalType": "string",
          "name": "fullname",
          "type": "string"
        },
        {
          "internalType": "uint256",
          "name": "contact",
          "type": "uint256"
        },
        {
          "internalType": "string",
          "name": "place",
          "type": "string"
        },
        {
          "internalType": "uint256",
          "name": "date",
          "type": "uint256"
        },
        {
          "internalType": "uint256",
          "name": "time",
          "type": "uint256"
        },
        {
          "internalType": "string",
          "name": "offence",
          "type": "string"
        },
        {
          "internalType": "string",
          "name": "witness",
          "type": "string"
        },
        {
          "internalType": "string",
          "name": "complaint",
          "type": "string"
        }
      ],
      "stateMutability": "view",
      "type": "function"
    },
    {
      "inputs": [],
      "name": "count",
      "outputs": [
        {
          "internalType": "uint256",
          "name": "",
          "type": "uint256"
        }
      ],
      "stateMutability": "view",
      "type": "function"
    },
    {
      "inputs": [
        {
          "internalType": "uint256",
          "name": "Id",
          "type": "uint256"
        }
      ],
      "name": "fetchFIR",
      "outputs": [
        {
          "internalType": "address",
          "name": "",
          "type": "address"
        },
        {
          "internalType": "uint256",
          "name": "",
          "type": "uint256"
        },
        {
          "internalType": "string",
          "name": "",
          "type": "string"
        },
        {
          "internalType": "uint256",
          "name": "",
          "type": "uint256"
        },
        {
          "internalType": "string",
          "name": "",
          "type": "string"
        },
        {
          "internalType": "uint256",
          "name": "",
          "type": "uint256"
        },
        {
          "internalType": "uint256",
          "name": "",
          "type": "uint256"
        },
        {
          "internalType": "string",
          "name": "",
          "type": "string"
        },
        {
          "internalType": "string",
          "name": "",
          "type": "string"
        },
        {
          "internalType": "string",
          "name": "",
          "type": "string"
        }
      ],
      "stateMutability": "view",
      "type": "function"
    }
  ],
  "bytecode": "0x6080604052600060015534801561001557600080fd5b506111d7806100256000396000f3fe608060405234801561001057600080fd5b506004361061004c5760003560e01c806306661abd14610051578063467f2cd81461006f5780639def2ad1146100a8578063c505b01d146100e1575b600080fd5b6100596100fd565b604051610066919061093f565b60405180910390f35b6100896004803603810190610084919061099a565b610103565b60405161009f9a99989796959493929190610a98565b60405180910390f35b6100c260048036038101906100bd919061099a565b61041f565b6040516100d89a99989796959493929190610a98565b60405180910390f35b6100fb60048036038101906100f69190610cb8565b610771565b005b60015481565b60006020528060005260406000206000915090508060000160009054906101000a900473ffffffffffffffffffffffffffffffffffffffff169080600101549080600201805461015290610e52565b80601f016020809104026020016040519081016040528092919081815260200182805461017e90610e52565b80156101cb5780601f106101a0576101008083540402835291602001916101cb565b820191906000526020600020905b8154815290600101906020018083116101ae57829003601f168201915b5050505050908060030154908060040180546101e690610e52565b80601f016020809104026020016040519081016040528092919081815260200182805461021290610e52565b801561025f5780601f106102345761010080835404028352916020019161025f565b820191906000526020600020905b81548152906001019060200180831161024257829003601f168201915b50505050509080600501549080600601549080600701805461028090610e52565b80601f01602080910402602001604051908101604052809291908181526020018280546102ac90610e52565b80156102f95780601f106102ce576101008083540402835291602001916102f9565b820191906000526020600020905b8154815290600101906020018083116102dc57829003601f168201915b50505050509080600801805461030e90610e52565b80601f016020809104026020016040519081016040528092919081815260200182805461033a90610e52565b80156103875780601f1061035c57610100808354040283529160200191610387565b820191906000526020600020905b81548152906001019060200180831161036a57829003601f168201915b50505050509080600901805461039c90610e52565b80601f01602080910402602001604051908101604052809291908181526020018280546103c890610e52565b80156104155780601f106103ea57610100808354040283529160200191610415565b820191906000526020600020905b8154815290600101906020018083116103f857829003601f168201915b505050505090508a565b600080606060006060600080606080606060008060008d815260200190815260200160002090508060000160009054906101000a900473ffffffffffffffffffffffffffffffffffffffff168160010154826002018360030154846004018560050154866006015487600701886008018960090187805461049f90610e52565b80601f01602080910402602001604051908101604052809291908181526020018280546104cb90610e52565b80156105185780601f106104ed57610100808354040283529160200191610518565b820191906000526020600020905b8154815290600101906020018083116104fb57829003601f168201915b5050505050975085805461052b90610e52565b80601f016020809104026020016040519081016040528092919081815260200182805461055790610e52565b80156105a45780601f10610579576101008083540402835291602001916105a4565b820191906000526020600020905b81548152906001019060200180831161058757829003601f168201915b505050505095508280546105b790610e52565b80601f01602080910402602001604051908101604052809291908181526020018280546105e390610e52565b80156106305780601f1061060557610100808354040283529160200191610630565b820191906000526020600020905b81548152906001019060200180831161061357829003601f168201915b5050505050925081805461064390610e52565b80601f016020809104026020016040519081016040528092919081815260200182805461066f90610e52565b80156106bc5780601f10610691576101008083540402835291602001916106bc565b820191906000526020600020905b81548152906001019060200180831161069f57829003601f168201915b505050505091508080546106cf90610e52565b80601f01602080910402602001604051908101604052809291908181526020018280546106fb90610e52565b80156107485780601f1061071d57610100808354040283529160200191610748565b820191906000526020600020905b81548152906001019060200180831161072b57829003601f168201915b505050505090509a509a509a509a509a509a509a509a509a509a50509193959799509193959799565b6001600081548092919061078490610eb2565b9190505550600060015490506040518061014001604052808c73ffffffffffffffffffffffffffffffffffffffff1681526020018b81526020018a81526020018981526020018881526020018781526020018681526020018581526020018481526020018381525060008083815260200190815260200160002060008201518160000160006101000a81548173ffffffffffffffffffffffffffffffffffffffff021916908373ffffffffffffffffffffffffffffffffffffffff16021790555060208201518160010155604082015181600201908161086491906110a6565b5060608201518160030155608082015181600401908161088491906110a6565b5060a0820151816005015560c0820151816006015560e08201518160070190816108ae91906110a6565b506101008201518160080190816108c591906110a6565b506101208201518160090190816108dc91906110a6565b509050507ff203c1c354f2c73cd473ade0b523568c23a86c4f07cd87e35dcdf71dca18d0f4818c604051610911929190611178565b60405180910390a15050505050505050505050565b6000819050919050565b61093981610926565b82525050565b60006020820190506109546000830184610930565b92915050565b6000604051905090565b600080fd5b600080fd5b61097781610926565b811461098257600080fd5b50565b6000813590506109948161096e565b92915050565b6000602082840312156109b0576109af610964565b5b60006109be84828501610985565b91505092915050565b600073ffffffffffffffffffffffffffffffffffffffff82169050919050565b60006109f2826109c7565b9050919050565b610a02816109e7565b82525050565b600081519050919050565b600082825260208201905092915050565b60005b83811015610a42578082015181840152602081019050610a27565b60008484015250505050565b6000601f19601f8301169050919050565b6000610a6a82610a08565b610a748185610a13565b9350610a84818560208601610a24565b610a8d81610a4e565b840191505092915050565b600061014082019050610aae600083018d6109f9565b610abb602083018c610930565b8181036040830152610acd818b610a5f565b9050610adc606083018a610930565b8181036080830152610aee8189610a5f565b9050610afd60a0830188610930565b610b0a60c0830187610930565b81810360e0830152610b1c8186610a5f565b9050818103610100830152610b318185610a5f565b9050818103610120830152610b468184610a5f565b90509b9a5050505050505050505050565b610b60816109e7565b8114610b6b57600080fd5b50565b600081359050610b7d81610b57565b92915050565b600080fd5b600080fd5b7f4e487b7100000000000000000000000000000000000000000000000000000000600052604160045260246000fd5b610bc582610a4e565b810181811067ffffffffffffffff82111715610be457610be3610b8d565b5b80604052505050565b6000610bf761095a565b9050610c038282610bbc565b919050565b600067ffffffffffffffff821115610c2357610c22610b8d565b5b610c2c82610a4e565b9050602081019050919050565b82818337600083830152505050565b6000610c5b610c5684610c08565b610bed565b905082815260208101848484011115610c7757610c76610b88565b5b610c82848285610c39565b509392505050565b600082601f830112610c9f57610c9e610b83565b5b8135610caf848260208601610c48565b91505092915050565b6000806000806000806000806000806101408b8d031215610cdc57610cdb610964565b5b6000610cea8d828e01610b6e565b9a50506020610cfb8d828e01610985565b99505060408b013567ffffffffffffffff811115610d1c57610d1b610969565b5b610d288d828e01610c8a565b9850506060610d398d828e01610985565b97505060808b013567ffffffffffffffff811115610d5a57610d59610969565b5b610d668d828e01610c8a565b96505060a0610d778d828e01610985565b95505060c0610d888d828e01610985565b94505060e08b013567ffffffffffffffff811115610da957610da8610969565b5b610db58d828e01610c8a565b9350506101008b013567ffffffffffffffff811115610dd757610dd6610969565b5b610de38d828e01610c8a565b9250506101208b013567ffffffffffffffff811115610e0557610e04610969565b5b610e118d828e01610c8a565b9150509295989b9194979a5092959850565b7f4e487b7100000000000000000000000000000000000000000000000000000000600052602260045260246000fd5b60006002820490506001821680610e6a57607f821691505b602082108103610e7d57610e7c610e23565b5b50919050565b7f4e487b7100000000000000000000000000000000000000000000000000000000600052601160045260246000fd5b6000610ebd82610926565b91507fffffffffffffffffffffffffffffffffffffffffffffffffffffffffffffffff8203610eef57610eee610e83565b5b600182019050919050565b60008190508160005260206000209050919050565b60006020601f8301049050919050565b600082821b905092915050565b600060088302610f5c7fffffffffffffffffffffffffffffffffffffffffffffffffffffffffffffffff82610f1f565b610f668683610f1f565b95508019841693508086168417925050509392505050565b6000819050919050565b6000610fa3610f9e610f9984610926565b610f7e565b610926565b9050919050565b6000819050919050565b610fbd83610f88565b610fd1610fc982610faa565b848454610f2c565b825550505050565b600090565b610fe6610fd9565b610ff1818484610fb4565b505050565b5b818110156110155761100a600082610fde565b600181019050610ff7565b5050565b601f82111561105a5761102b81610efa565b61103484610f0f565b81016020851015611043578190505b61105761104f85610f0f565b830182610ff6565b50505b505050565b600082821c905092915050565b600061107d6000198460080261105f565b1980831691505092915050565b6000611096838361106c565b9150826002028217905092915050565b6110af82610a08565b67ffffffffffffffff8111156110c8576110c7610b8d565b5b6110d28254610e52565b6110dd828285611019565b600060209050601f83116001811461111057600084156110fe578287015190505b611108858261108a565b865550611170565b601f19841661111e86610efa565b60005b8281101561114657848901518255600182019150602085019450602081019050611121565b86831015611163578489015161115f601f89168261106c565b8355505b6001600288020188555050505b505050505050565b600060408201905061118d6000830185610930565b61119a60208301846109f9565b939250505056fea2646970667358221220a894c87cc8bff8666011c8b88bb9069593b30bc346629614122e555b484cee3c64736f6c63430008110033",
  "linkReferences": {},
  "deployedLinkReferences": {}
}